{
  "_format": "hh-sol-artifact-1",
  "contractName": "DecentralizedStorageManager",
  "sourceName": "contracts/FileManager.sol",
  "abi": [
    {
      "inputs": [
        {
          "internalType": "address",
          "name": "_storageToken",
          "type": "address"
        }
      ],
      "stateMutability": "nonpayable",
      "type": "constructor"
    },
    {
      "inputs": [
        {
          "internalType": "address",
          "name": "owner",
          "type": "address"
        }
      ],
      "name": "OwnableInvalidOwner",
      "type": "error"
    },
    {
      "inputs": [
        {
          "internalType": "address",
          "name": "account",
          "type": "address"
        }
      ],
      "name": "OwnableUnauthorizedAccount",
      "type": "error"
    },
    {
      "inputs": [],
      "name": "ReentrancyGuardReentrantCall",
      "type": "error"
    },
    {
      "anonymous": false,
      "inputs": [
        {
          "indexed": true,
          "internalType": "string",
          "name": "fileId",
          "type": "string"
        },
        {
          "indexed": true,
          "internalType": "address",
          "name": "user",
          "type": "address"
        }
      ],
      "name": "FileAccessed",
      "type": "event"
    },
    {
      "anonymous": false,
      "inputs": [
        {
          "indexed": true,
          "internalType": "string",
          "name": "fileId",
          "type": "string"
        },
        {
          "indexed": true,
          "internalType": "address",
          "name": "owner",
          "type": "address"
        },
        {
          "indexed": false,
          "internalType": "uint256",
          "name": "fileSize",
          "type": "uint256"
        }
      ],
      "name": "FileUploaded",
      "type": "event"
    },
    {
      "anonymous": false,
      "inputs": [
        {
          "indexed": true,
          "internalType": "address",
          "name": "previousOwner",
          "type": "address"
        },
        {
          "indexed": true,
          "internalType": "address",
          "name": "newOwner",
          "type": "address"
        }
      ],
      "name": "OwnershipTransferred",
      "type": "event"
    },
    {
      "anonymous": false,
      "inputs": [
        {
          "indexed": true,
          "internalType": "address",
          "name": "provider",
          "type": "address"
        },
        {
          "indexed": false,
          "internalType": "uint256",
          "name": "amount",
          "type": "uint256"
        }
      ],
      "name": "PenaltyApplied",
      "type": "event"
    },
    {
      "anonymous": false,
      "inputs": [
        {
          "indexed": true,
          "internalType": "bytes32",
          "name": "contractId",
          "type": "bytes32"
        },
        {
          "indexed": false,
          "internalType": "address",
          "name": "provider",
          "type": "address"
        },
        {
          "indexed": false,
          "internalType": "bool",
          "name": "success",
          "type": "bool"
        }
      ],
      "name": "ProofOfStorageSubmitted",
      "type": "event"
    },
    {
      "anonymous": false,
      "inputs": [
        {
          "indexed": true,
          "internalType": "address",
          "name": "provider",
          "type": "address"
        },
        {
          "indexed": false,
          "internalType": "string",
          "name": "nodeId",
          "type": "string"
        },
        {
          "indexed": false,
          "internalType": "uint256",
          "name": "stakedAmount",
          "type": "uint256"
        }
      ],
      "name": "ProviderRegistered",
      "type": "event"
    },
    {
      "anonymous": false,
      "inputs": [
        {
          "indexed": true,
          "internalType": "address",
          "name": "provider",
          "type": "address"
        },
        {
          "indexed": false,
          "internalType": "uint256",
          "name": "amount",
          "type": "uint256"
        },
        {
          "indexed": false,
          "internalType": "string",
          "name": "reason",
          "type": "string"
        }
      ],
      "name": "ProviderSlashed",
      "type": "event"
    },
    {
      "anonymous": false,
      "inputs": [
        {
          "indexed": true,
          "internalType": "address",
          "name": "provider",
          "type": "address"
        },
        {
          "indexed": false,
          "internalType": "uint256",
          "name": "amount",
          "type": "uint256"
        }
      ],
      "name": "RewardDistributed",
      "type": "event"
    },
    {
      "anonymous": false,
      "inputs": [
        {
          "indexed": true,
          "internalType": "bytes32",
          "name": "contractId",
          "type": "bytes32"
        },
        {
          "indexed": false,
          "internalType": "string",
          "name": "fileId",
          "type": "string"
        },
        {
          "indexed": false,
          "internalType": "address",
          "name": "provider",
          "type": "address"
        },
        {
          "indexed": false,
          "internalType": "address",
          "name": "client",
          "type": "address"
        }
      ],
      "name": "StorageContractCreated",
      "type": "event"
    },
    {
      "inputs": [],
      "name": "MAX_REPUTATION",
      "outputs": [
        {
          "internalType": "uint256",
          "name": "",
          "type": "uint256"
        }
      ],
      "stateMutability": "view",
      "type": "function"
    },
    {
      "inputs": [],
      "name": "MIN_STAKE",
      "outputs": [
        {
          "internalType": "uint256",
          "name": "",
          "type": "uint256"
        }
      ],
      "stateMutability": "view",
      "type": "function"
    },
    {
      "inputs": [],
      "name": "PROOF_INTERVAL",
      "outputs": [
        {
          "internalType": "uint256",
          "name": "",
          "type": "uint256"
        }
      ],
      "stateMutability": "view",
      "type": "function"
    },
    {
      "inputs": [
        {
          "internalType": "string",
          "name": "_fileId",
          "type": "string"
        }
      ],
      "name": "accessFile",
      "outputs": [],
      "stateMutability": "nonpayable",
      "type": "function"
    },
    {
      "inputs": [
        {
          "internalType": "uint256",
          "name": "",
          "type": "uint256"
        }
      ],
      "name": "activeProviders",
      "outputs": [
        {
          "internalType": "address",
          "name": "",
          "type": "address"
        }
      ],
      "stateMutability": "view",
      "type": "function"
    },
    {
      "inputs": [
        {
          "internalType": "uint256",
          "name": "_amount",
          "type": "uint256"
        }
      ],
      "name": "addToIncentivePool",
      "outputs": [],
      "stateMutability": "nonpayable",
      "type": "function"
    },
    {
      "inputs": [
        {
          "internalType": "uint256",
          "name": "",
          "type": "uint256"
        }
      ],
      "name": "allFiles",
      "outputs": [
        {
          "internalType": "string",
          "name": "",
          "type": "string"
        }
      ],
      "stateMutability": "view",
      "type": "function"
    },
    {
      "inputs": [
        {
          "internalType": "string",
          "name": "",
          "type": "string"
        }
      ],
      "name": "fileMetadata",
      "outputs": [
        {
          "internalType": "string",
          "name": "fileId",
          "type": "string"
        },
        {
          "internalType": "string",
          "name": "contentHash",
          "type": "string"
        },
        {
          "internalType": "address",
          "name": "owner",
          "type": "address"
        },
        {
          "internalType": "uint256",
          "name": "fileSize",
          "type": "uint256"
        },
        {
          "internalType": "uint256",
          "name": "uploadTimestamp",
          "type": "uint256"
        },
        {
          "internalType": "uint256",
          "name": "lastAccessTimestamp",
          "type": "uint256"
        },
        {
          "internalType": "string",
          "name": "encryptionKey",
          "type": "string"
        },
        {
          "internalType": "bool",
          "name": "isPublic",
          "type": "bool"
        },
        {
          "internalType": "uint256",
          "name": "accessCount",
          "type": "uint256"
        },
        {
          "internalType": "uint256",
          "name": "replicationFactor",
          "type": "uint256"
        }
      ],
      "stateMutability": "view",
      "type": "function"
    },
    {
      "inputs": [
        {
          "internalType": "string",
          "name": "_fileId",
          "type": "string"
        }
      ],
      "name": "getFileInfo",
      "outputs": [
        {
          "internalType": "string",
          "name": "fileId",
          "type": "string"
        },
        {
          "internalType": "string",
          "name": "contentHash",
          "type": "string"
        },
        {
          "internalType": "address",
          "name": "owner",
          "type": "address"
        },
        {
          "internalType": "uint256",
          "name": "fileSize",
          "type": "uint256"
        },
        {
          "internalType": "uint256",
          "name": "uploadTimestamp",
          "type": "uint256"
        },
        {
          "internalType": "bool",
          "name": "isPublic",
          "type": "bool"
        },
        {
          "internalType": "uint256",
          "name": "accessCount",
          "type": "uint256"
        }
      ],
      "stateMutability": "view",
      "type": "function"
    },
    {
      "inputs": [],
      "name": "getIncentivePoolInfo",
      "outputs": [
        {
          "internalType": "uint256",
          "name": "totalRewards",
          "type": "uint256"
        },
        {
          "internalType": "uint256",
          "name": "distributedRewards",
          "type": "uint256"
        },
        {
          "internalType": "uint256",
          "name": "rewardRate",
          "type": "uint256"
        },
        {
          "internalType": "uint256",
          "name": "penaltyRate",
          "type": "uint256"
        }
      ],
      "stateMutability": "view",
      "type": "function"
    },
    {
      "inputs": [
        {
          "internalType": "address",
          "name": "_provider",
          "type": "address"
        }
      ],
      "name": "getProviderInfo",
      "outputs": [
        {
          "internalType": "uint256",
          "name": "totalStorage",
          "type": "uint256"
        },
        {
          "internalType": "uint256",
          "name": "usedStorage",
          "type": "uint256"
        },
        {
          "internalType": "uint256",
          "name": "reputation",
          "type": "uint256"
        },
        {
          "internalType": "uint256",
          "name": "pricePerGB",
          "type": "uint256"
        },
        {
          "internalType": "bool",
          "name": "isActive",
          "type": "bool"
        },
        {
          "internalType": "uint256",
          "name": "stakedAmount",
          "type": "uint256"
        }
      ],
      "stateMutability": "view",
      "type": "function"
    },
    {
      "inputs": [],
      "name": "getTotalFiles",
      "outputs": [
        {
          "internalType": "uint256",
          "name": "",
          "type": "uint256"
        }
      ],
      "stateMutability": "view",
      "type": "function"
    },
    {
      "inputs": [],
      "name": "getTotalProviders",
      "outputs": [
        {
          "internalType": "uint256",
          "name": "",
          "type": "uint256"
        }
      ],
      "stateMutability": "view",
      "type": "function"
    },
    {
      "inputs": [
        {
          "internalType": "string",
          "name": "_fileId",
          "type": "string"
        },
        {
          "internalType": "address",
          "name": "_user",
          "type": "address"
        }
      ],
      "name": "grantFileAccess",
      "outputs": [],
      "stateMutability": "nonpayable",
      "type": "function"
    },
    {
      "inputs": [],
      "name": "incentivePool",
      "outputs": [
        {
          "internalType": "uint256",
          "name": "totalRewards",
          "type": "uint256"
        },
        {
          "internalType": "uint256",
          "name": "distributedRewards",
          "type": "uint256"
        },
        {
          "internalType": "uint256",
          "name": "rewardRate",
          "type": "uint256"
        },
        {
          "internalType": "uint256",
          "name": "penaltyRate",
          "type": "uint256"
        }
      ],
      "stateMutability": "view",
      "type": "function"
    },
    {
      "inputs": [],
      "name": "owner",
      "outputs": [
        {
          "internalType": "address",
          "name": "",
          "type": "address"
        }
      ],
      "stateMutability": "view",
      "type": "function"
    },
    {
      "inputs": [
        {
          "internalType": "address",
          "name": "",
          "type": "address"
        }
      ],
      "name": "providerEarnings",
      "outputs": [
        {
          "internalType": "uint256",
          "name": "",
          "type": "uint256"
        }
      ],
      "stateMutability": "view",
      "type": "function"
    },
    {
      "inputs": [
        {
          "internalType": "uint256",
          "name": "_totalStorage",
          "type": "uint256"
        },
        {
          "internalType": "uint256",
          "name": "_pricePerGB",
          "type": "uint256"
        },
        {
          "internalType": "string",
          "name": "_nodeId",
          "type": "string"
        },
        {
          "internalType": "string",
          "name": "_region",
          "type": "string"
        }
      ],
      "name": "registerProvider",
      "outputs": [],
      "stateMutability": "nonpayable",
      "type": "function"
    },
    {
      "inputs": [],
      "name": "renounceOwnership",
      "outputs": [],
      "stateMutability": "nonpayable",
      "type": "function"
    },
    {
      "inputs": [
        {
          "internalType": "string",
          "name": "_fileId",
          "type": "string"
        },
        {
          "internalType": "address",
          "name": "_user",
          "type": "address"
        }
      ],
      "name": "revokeFileAccess",
      "outputs": [],
      "stateMutability": "nonpayable",
      "type": "function"
    },
    {
      "inputs": [
        {
          "internalType": "address",
          "name": "_provider",
          "type": "address"
        },
        {
          "internalType": "uint256",
          "name": "_amount",
          "type": "uint256"
        },
        {
          "internalType": "string",
          "name": "_reason",
          "type": "string"
        }
      ],
      "name": "slashProvider",
      "outputs": [],
      "stateMutability": "nonpayable",
      "type": "function"
    },
    {
      "inputs": [
        {
          "internalType": "bytes32",
          "name": "",
          "type": "bytes32"
        }
      ],
      "name": "storageContracts",
      "outputs": [
        {
          "internalType": "string",
          "name": "fileId",
          "type": "string"
        },
        {
          "internalType": "address",
          "name": "provider",
          "type": "address"
        },
        {
          "internalType": "address",
          "name": "client",
          "type": "address"
        },
        {
          "internalType": "uint256",
          "name": "duration",
          "type": "uint256"
        },
        {
          "internalType": "uint256",
          "name": "pricePerDay",
          "type": "uint256"
        },
        {
          "internalType": "uint256",
          "name": "startTime",
          "type": "uint256"
        },
        {
          "internalType": "uint256",
          "name": "endTime",
          "type": "uint256"
        },
        {
          "internalType": "bool",
          "name": "isActive",
          "type": "bool"
        },
        {
          "internalType": "uint256",
          "name": "collateral",
          "type": "uint256"
        },
        {
          "internalType": "uint256",
          "name": "lastProofTime",
          "type": "uint256"
        }
      ],
      "stateMutability": "view",
      "type": "function"
    },
    {
      "inputs": [
        {
          "internalType": "address",
          "name": "",
          "type": "address"
        }
      ],
      "name": "storageProviders",
      "outputs": [
        {
          "internalType": "address",
          "name": "providerAddress",
          "type": "address"
        },
        {
          "internalType": "uint256",
          "name": "totalStorage",
          "type": "uint256"
        },
        {
          "internalType": "uint256",
          "name": "usedStorage",
          "type": "uint256"
        },
        {
          "internalType": "uint256",
          "name": "reputation",
          "type": "uint256"
        },
        {
          "internalType": "uint256",
          "name": "pricePerGB",
          "type": "uint256"
        },
        {
          "internalType": "bool",
          "name": "isActive",
          "type": "bool"
        },
        {
          "internalType": "uint256",
          "name": "stakedAmount",
          "type": "uint256"
        },
        {
          "internalType": "uint256",
          "name": "joinedTimestamp",
          "type": "uint256"
        },
        {
          "internalType": "string",
          "name": "nodeId",
          "type": "string"
        },
        {
          "internalType": "string",
          "name": "region",
          "type": "string"
        }
      ],
      "stateMutability": "view",
      "type": "function"
    },
    {
      "inputs": [],
      "name": "storageToken",
      "outputs": [
        {
          "internalType": "contract IERC20",
          "name": "",
          "type": "address"
        }
      ],
      "stateMutability": "view",
      "type": "function"
    },
    {
      "inputs": [
        {
          "internalType": "bytes32",
          "name": "_contractId",
          "type": "bytes32"
        },
        {
          "internalType": "bytes32[]",
          "name": "_merkleProof",
          "type": "bytes32[]"
        },
        {
          "internalType": "bytes32",
          "name": "_challengeResponse",
          "type": "bytes32"
        }
      ],
      "name": "submitProofOfStorage",
      "outputs": [],
      "stateMutability": "nonpayable",
      "type": "function"
    },
    {
      "inputs": [
        {
          "internalType": "address",
          "name": "newOwner",
          "type": "address"
        }
      ],
      "name": "transferOwnership",
      "outputs": [],
      "stateMutability": "nonpayable",
      "type": "function"
    },
    {
      "inputs": [
        {
          "internalType": "string",
          "name": "_fileId",
          "type": "string"
        },
        {
          "internalType": "string",
          "name": "_contentHash",
          "type": "string"
        },
        {
          "internalType": "uint256",
          "name": "_fileSize",
          "type": "uint256"
        },
        {
          "internalType": "string",
          "name": "_encryptionKey",
          "type": "string"
        },
        {
          "internalType": "bool",
          "name": "_isPublic",
          "type": "bool"
        },
        {
          "internalType": "string[]",
          "name": "_tags",
          "type": "string[]"
        },
        {
          "internalType": "uint256",
          "name": "_replicationFactor",
          "type": "uint256"
        }
      ],
      "name": "uploadFile",
      "outputs": [],
      "stateMutability": "nonpayable",
      "type": "function"
    },
    {
      "inputs": [
        {
          "internalType": "address",
          "name": "",
          "type": "address"
        }
      ],
      "name": "userBalances",
      "outputs": [
        {
          "internalType": "uint256",
          "name": "",
          "type": "uint256"
        }
      ],
      "stateMutability": "view",
      "type": "function"
    },
    {
      "inputs": [],
      "name": "withdrawEarnings",
      "outputs": [],
      "stateMutability": "nonpayable",
      "type": "function"
    }
  ],
  "bytecode": "0x60806040523480156200001157600080fd5b5060405162004e3f38038062004e3f83398181016040528101906200003791906200029d565b33600073ffffffffffffffffffffffffffffffffffffffff168173ffffffffffffffffffffffffffffffffffffffff1603620000ad5760006040517f1e4fbdf7000000000000000000000000000000000000000000000000000000008152600401620000a49190620002e0565b60405180910390fd5b620000be816200016f60201b60201c565b506001808190555080600d60006101000a81548173ffffffffffffffffffffffffffffffffffffffff021916908373ffffffffffffffffffffffffffffffffffffffff16021790555060405180608001604052806000815260200160008152602001678ac7230489e8000081526020016802b5e3af16b188000081525060096000820151816000015560208201518160010155604082015181600201556060820151816003015590505050620002fd565b60008060009054906101000a900473ffffffffffffffffffffffffffffffffffffffff169050816000806101000a81548173ffffffffffffffffffffffffffffffffffffffff021916908373ffffffffffffffffffffffffffffffffffffffff1602179055508173ffffffffffffffffffffffffffffffffffffffff168173ffffffffffffffffffffffffffffffffffffffff167f8be0079c531659141344cd1fd0a4f28419497f9722a3daafe3b4186f6b6457e060405160405180910390a35050565b600080fd5b600073ffffffffffffffffffffffffffffffffffffffff82169050919050565b6000620002658262000238565b9050919050565b620002778162000258565b81146200028357600080fd5b50565b60008151905062000297816200026c565b92915050565b600060208284031215620002b657620002b562000233565b5b6000620002c68482850162000286565b91505092915050565b620002da8162000258565b82525050565b6000602082019050620002f76000830184620002cf565b92915050565b614b32806200030d6000396000f3fe608060405234801561001057600080fd5b50600436106101cf5760003560e01c806378f0084e11610104578063d213c0f2116100a2578063e45cd36511610071578063e45cd36514610557578063e8d9045514610573578063f20c180c14610594578063f2fde38b146105b2576101cf565b8063d213c0f2146104c8578063d27181f0146104e6578063d59de86014610502578063e43c10021461053b576101cf565b8063a7b1f7c0116100de578063a7b1f7c014610452578063b5710a3014610482578063b73c6ce9146104a0578063cb1c2b5c146104aa576101cf565b806378f0084e146103fc5780638da5cb5b146104185780639fb7788114610436576101cf565b80635714d95211610171578063715018a61161014b578063715018a61461036657806372c6a94e146103705780637583902f146103a9578063766e0d33146103de576101cf565b80635714d952146102e15780635da471d1146102fd57806360c351c01461032d576101cf565b806326224c64116101ad57806326224c64146102565780632977ba391461028657806337c5c31b146102a25780634841422e146102c0576101cf565b80630c4924bf146101d45780630cc9c17b146101f0578063159a659414610226575b600080fd5b6101ee60048036038101906101e99190612fdf565b6105ce565b005b61020a6004803603810190610205919061303b565b6106e1565b60405161021d9796959493929190613146565b60405180910390f35b610240600480360381019061023b91906131c3565b61088d565b60405161024d91906131f0565b60405180910390f35b610270600480360381019061026b91906131c3565b6108a5565b60405161027d91906131f0565b60405180910390f35b6102a0600480360381019061029b9190612fdf565b6108bd565b005b6102aa6109d0565b6040516102b7919061326a565b60405180910390f35b6102c86109f6565b6040516102d89493929190613285565b60405180910390f35b6102fb60048036038101906102f6919061303b565b610a14565b005b610317600480360381019061031291906132f6565b610c09565b6040516103249190613323565b60405180910390f35b610347600480360381019061034291906131c3565b610c48565b60405161035d9a9998979695949392919061333e565b60405180910390f35b61036e610dd9565b005b61038a6004803603810190610385919061303b565b610ded565b6040516103a09a999897969594939291906133e8565b60405180910390f35b6103c360048036038101906103be91906131c3565b61101c565b6040516103d596959493929190613499565b60405180910390f35b6103e66110a9565b6040516103f391906131f0565b60405180910390f35b610416600480360381019061041191906135f8565b6110b6565b005b6104206113bc565b60405161042d9190613323565b60405180910390f35b610450600480360381019061044b9190613667565b6113e5565b005b61046c600480360381019061046791906132f6565b61153d565b60405161047991906136d6565b60405180910390f35b61048a6115e9565b60405161049791906131f0565b60405180910390f35b6104a86115f0565b005b6104b26117ae565b6040516104bf91906131f0565b60405180910390f35b6104d06117bb565b6040516104dd91906131f0565b60405180910390f35b61050060048036038101906104fb91906136f8565b6117c1565b005b61051c60048036038101906105179190613797565b611c01565b6040516105329a999897969594939291906137c4565b60405180910390f35b610555600480360381019061055091906132f6565b611d2a565b005b610571600480360381019061056c9190613974565b611e30565b005b61057b612166565b60405161058b9493929190613285565b60405180910390f35b61059c612192565b6040516105a991906131f0565b60405180910390f35b6105cc60048036038101906105c791906131c3565b61219f565b005b60006003836040516105e09190613ac2565b908152602001604051809103902090503373ffffffffffffffffffffffffffffffffffffffff168160020160009054906101000a900473ffffffffffffffffffffffffffffffffffffffff1673ffffffffffffffffffffffffffffffffffffffff1614610682576040517f08c379a000000000000000000000000000000000000000000000000000000000815260040161067990613b25565b60405180910390fd5b600181600a0160008473ffffffffffffffffffffffffffffffffffffffff1673ffffffffffffffffffffffffffffffffffffffff16815260200190815260200160002060006101000a81548160ff021916908315150217905550505050565b6060806000806000806000806003896040516106fd9190613ac2565b9081526020016040518091039020905080600001816001018260020160009054906101000a900473ffffffffffffffffffffffffffffffffffffffff16836003015484600401548560070160009054906101000a900460ff16866008015486805461076790613b74565b80601f016020809104026020016040519081016040528092919081815260200182805461079390613b74565b80156107e05780601f106107b5576101008083540402835291602001916107e0565b820191906000526020600020905b8154815290600101906020018083116107c357829003601f168201915b505050505096508580546107f390613b74565b80601f016020809104026020016040519081016040528092919081815260200182805461081f90613b74565b801561086c5780601f106108415761010080835404028352916020019161086c565b820191906000526020600020905b81548152906001019060200180831161084f57829003601f168201915b50505050509550975097509750975097509750975050919395979092949650565b60066020528060005260406000206000915090505481565b60056020528060005260406000206000915090505481565b60006003836040516108cf9190613ac2565b908152602001604051809103902090503373ffffffffffffffffffffffffffffffffffffffff168160020160009054906101000a900473ffffffffffffffffffffffffffffffffffffffff1673ffffffffffffffffffffffffffffffffffffffff1614610971576040517f08c379a000000000000000000000000000000000000000000000000000000000815260040161096890613bf1565b60405180910390fd5b600081600a0160008473ffffffffffffffffffffffffffffffffffffffff1673ffffffffffffffffffffffffffffffffffffffff16815260200190815260200160002060006101000a81548160ff021916908315150217905550505050565b600d60009054906101000a900473ffffffffffffffffffffffffffffffffffffffff1681565b60098060000154908060010154908060020154908060030154905084565b6000600382604051610a269190613ac2565b908152602001604051809103902090506000816000018054610a4790613b74565b905011610a89576040517f08c379a0000000000000000000000000000000000000000000000000000000008152600401610a8090613c5d565b60405180910390fd5b8060070160009054906101000a900460ff1680610af557503373ffffffffffffffffffffffffffffffffffffffff168160020160009054906101000a900473ffffffffffffffffffffffffffffffffffffffff1673ffffffffffffffffffffffffffffffffffffffff16145b80610b4b575080600a0160003373ffffffffffffffffffffffffffffffffffffffff1673ffffffffffffffffffffffffffffffffffffffff16815260200190815260200160002060009054906101000a900460ff165b610b8a576040517f08c379a0000000000000000000000000000000000000000000000000000000008152600401610b8190613cc9565b60405180910390fd5b42816005018190555060018160080154610ba49190613d18565b81600801819055503373ffffffffffffffffffffffffffffffffffffffff1682604051610bd19190613ac2565b60405180910390207f30fc9a68ddc0a1f0adb56090586e2decbc9a7e3be01c5e6f5b9836db8598bd1a60405160405180910390a35050565b60078181548110610c1957600080fd5b906000526020600020016000915054906101000a900473ffffffffffffffffffffffffffffffffffffffff1681565b60026020528060005260406000206000915090508060000160009054906101000a900473ffffffffffffffffffffffffffffffffffffffff16908060010154908060020154908060030154908060040154908060050160009054906101000a900460ff1690806006015490806007015490806008018054610cc890613b74565b80601f0160208091040260200160405190810160405280929190818152602001828054610cf490613b74565b8015610d415780601f10610d1657610100808354040283529160200191610d41565b820191906000526020600020905b815481529060010190602001808311610d2457829003601f168201915b505050505090806009018054610d5690613b74565b80601f0160208091040260200160405190810160405280929190818152602001828054610d8290613b74565b8015610dcf5780601f10610da457610100808354040283529160200191610dcf565b820191906000526020600020905b815481529060010190602001808311610db257829003601f168201915b505050505090508a565b610de1612225565b610deb60006122ac565b565b600381805160208101820180518482526020830160208501208183528095505050505050600091509050806000018054610e2690613b74565b80601f0160208091040260200160405190810160405280929190818152602001828054610e5290613b74565b8015610e9f5780601f10610e7457610100808354040283529160200191610e9f565b820191906000526020600020905b815481529060010190602001808311610e8257829003601f168201915b505050505090806001018054610eb490613b74565b80601f0160208091040260200160405190810160405280929190818152602001828054610ee090613b74565b8015610f2d5780601f10610f0257610100808354040283529160200191610f2d565b820191906000526020600020905b815481529060010190602001808311610f1057829003601f168201915b5050505050908060020160009054906101000a900473ffffffffffffffffffffffffffffffffffffffff1690806003015490806004015490806005015490806006018054610f7a90613b74565b80601f0160208091040260200160405190810160405280929190818152602001828054610fa690613b74565b8015610ff35780601f10610fc857610100808354040283529160200191610ff3565b820191906000526020600020905b815481529060010190602001808311610fd657829003601f168201915b5050505050908060070160009054906101000a900460ff169080600801549080600c015490508a565b6000806000806000806000600260008973ffffffffffffffffffffffffffffffffffffffff1673ffffffffffffffffffffffffffffffffffffffff168152602001908152602001600020905080600101548160020154826003015483600401548460050160009054906101000a900460ff1685600601549650965096509650965096505091939550919395565b6000600880549050905090565b60006004600085815260200190815260200160002090508060070160009054906101000a900460ff1661111e576040517f08c379a000000000000000000000000000000000000000000000000000000000815260040161111590613d98565b60405180910390fd5b3373ffffffffffffffffffffffffffffffffffffffff168160010160009054906101000a900473ffffffffffffffffffffffffffffffffffffffff1673ffffffffffffffffffffffffffffffffffffffff16146111b0576040517f08c379a00000000000000000000000000000000000000000000000000000000081526004016111a790613e04565b60405180910390fd5b6201518081600901546111c39190613d18565b421015611205576040517f08c379a00000000000000000000000000000000000000000000000000000000081526004016111fc90613e70565b60405180910390fd5b600061129e848484600001805461121b90613b74565b80601f016020809104026020016040519081016040528092919081815260200182805461124790613b74565b80156112945780601f1061126957610100808354040283529160200191611294565b820191906000526020600020905b81548152906001019060200180831161127757829003601f168201915b5050505050612370565b9050801561136a576112b53360096002015461239b565b6000600260003373ffffffffffffffffffffffffffffffffffffffff1673ffffffffffffffffffffffffffffffffffffffff16815260200190815260200160002090506103e88160030154101561132057600181600301546113179190613d18565b81600301819055505b428360090181905550857ffc2139fecdef336b577485e7b8178aa21179f91de71395d1424e6ccf7a59038633600160405161135c929190613e90565b60405180910390a2506113b5565b611379336009600301546124ed565b847ffc2139fecdef336b577485e7b8178aa21179f91de71395d1424e6ccf7a5903863360006040516113ac929190613e90565b60405180910390a25b5050505050565b60008060009054906101000a900473ffffffffffffffffffffffffffffffffffffffff16905090565b6113ed612225565b6000600260008573ffffffffffffffffffffffffffffffffffffffff1673ffffffffffffffffffffffffffffffffffffffff16815260200190815260200160002090508060050160009054906101000a900460ff16611481576040517f08c379a000000000000000000000000000000000000000000000000000000000815260040161147890613f05565b60405180910390fd5b828160060154106114a95782816006015461149c9190613f25565b81600601819055506114b4565b600081600601819055505b683635c9adc5dea00000816006015410156114e75760008160050160006101000a81548160ff0219169083151502179055505b8373ffffffffffffffffffffffffffffffffffffffff167ff7e9b02351a3253c4d2fc01f058822791511c72929065515978606eb09279002848460405161152f929190613f59565b60405180910390a250505050565b6008818154811061154d57600080fd5b90600052602060002001600091509050805461156890613b74565b80601f016020809104026020016040519081016040528092919081815260200182805461159490613b74565b80156115e15780601f106115b6576101008083540402835291602001916115e1565b820191906000526020600020905b8154815290600101906020018083116115c457829003601f168201915b505050505081565b6201518081565b6115f861261a565b6000600660003373ffffffffffffffffffffffffffffffffffffffff1673ffffffffffffffffffffffffffffffffffffffff1681526020019081526020016000205490506000811161167f576040517f08c379a000000000000000000000000000000000000000000000000000000000815260040161167690613fd5565b60405180910390fd5b6000600660003373ffffffffffffffffffffffffffffffffffffffff1673ffffffffffffffffffffffffffffffffffffffff16815260200190815260200160002081905550600d60009054906101000a900473ffffffffffffffffffffffffffffffffffffffff1673ffffffffffffffffffffffffffffffffffffffff1663a9059cbb33836040518363ffffffff1660e01b8152600401611721929190613ff5565b6020604051808303816000875af1158015611740573d6000803e3d6000fd5b505050506040513d601f19601f820116820180604052508101906117649190614033565b6117a3576040517f08c379a000000000000000000000000000000000000000000000000000000000815260040161179a906140ac565b60405180910390fd5b506117ac612660565b565b683635c9adc5dea0000081565b6103e881565b60008411611804576040517f08c379a00000000000000000000000000000000000000000000000000000000081526004016117fb9061413e565b60405180910390fd5b60008311611847576040517f08c379a000000000000000000000000000000000000000000000000000000000815260040161183e906141aa565b60405180910390fd5b600260003373ffffffffffffffffffffffffffffffffffffffff1673ffffffffffffffffffffffffffffffffffffffff16815260200190815260200160002060050160009054906101000a900460ff16156118d7576040517f08c379a00000000000000000000000000000000000000000000000000000000081526004016118ce90614216565b60405180910390fd5b600d60009054906101000a900473ffffffffffffffffffffffffffffffffffffffff1673ffffffffffffffffffffffffffffffffffffffff166323b872dd3330683635c9adc5dea000006040518463ffffffff1660e01b815260040161193f93929190614236565b6020604051808303816000875af115801561195e573d6000803e3d6000fd5b505050506040513d601f19601f820116820180604052508101906119829190614033565b6119c1576040517f08c379a00000000000000000000000000000000000000000000000000000000081526004016119b8906142b9565b60405180910390fd5b6040518061014001604052803373ffffffffffffffffffffffffffffffffffffffff168152602001858152602001600081526020016101f48152602001848152602001600115158152602001683635c9adc5dea00000815260200142815260200183815260200182815250600260003373ffffffffffffffffffffffffffffffffffffffff1673ffffffffffffffffffffffffffffffffffffffff16815260200190815260200160002060008201518160000160006101000a81548173ffffffffffffffffffffffffffffffffffffffff021916908373ffffffffffffffffffffffffffffffffffffffff1602179055506020820151816001015560408201518160020155606082015181600301556080820151816004015560a08201518160050160006101000a81548160ff02191690831515021790555060c0820151816006015560e08201518160070155610100820151816008019081611b24919061447b565b50610120820151816009019081611b3b919061447b565b509050506007339080600181540180825580915050600190039060005260206000200160009091909190916101000a81548173ffffffffffffffffffffffffffffffffffffffff021916908373ffffffffffffffffffffffffffffffffffffffff1602179055503373ffffffffffffffffffffffffffffffffffffffff167f5a07a542cf40add1930d480ccf3ddfbb3a9684912d850afec36c9f6b3dab57fc83683635c9adc5dea00000604051611bf392919061454d565b60405180910390a250505050565b6004602052806000526040600020600091509050806000018054611c2490613b74565b80601f0160208091040260200160405190810160405280929190818152602001828054611c5090613b74565b8015611c9d5780601f10611c7257610100808354040283529160200191611c9d565b820191906000526020600020905b815481529060010190602001808311611c8057829003601f168201915b5050505050908060010160009054906101000a900473ffffffffffffffffffffffffffffffffffffffff16908060020160009054906101000a900473ffffffffffffffffffffffffffffffffffffffff16908060030154908060040154908060050154908060060154908060070160009054906101000a900460ff1690806008015490806009015490508a565b611d32612225565b600d60009054906101000a900473ffffffffffffffffffffffffffffffffffffffff1673ffffffffffffffffffffffffffffffffffffffff166323b872dd3330846040518463ffffffff1660e01b8152600401611d9193929190614236565b6020604051808303816000875af1158015611db0573d6000803e3d6000fd5b505050506040513d601f19601f82011682018060405250810190611dd49190614033565b611e13576040517f08c379a0000000000000000000000000000000000000000000000000000000008152600401611e0a906140ac565b60405180910390fd5b80600960000154611e249190613d18565b60096000018190555050565b6000875111611e74576040517f08c379a0000000000000000000000000000000000000000000000000000000008152600401611e6b906145c9565b60405180910390fd5b6000865111611eb8576040517f08c379a0000000000000000000000000000000000000000000000000000000008152600401611eaf90614635565b60405180910390fd5b60008511611efb576040517f08c379a0000000000000000000000000000000000000000000000000000000008152600401611ef2906146a1565b60405180910390fd5b600081118015611f0c5750600a8111155b611f4b576040517f08c379a0000000000000000000000000000000000000000000000000000000008152600401611f429061470d565b60405180910390fd5b6000600388604051611f5d9190613ac2565b90815260200160405180910390206000018054611f7990613b74565b905014611fbb576040517f08c379a0000000000000000000000000000000000000000000000000000000008152600401611fb290614779565b60405180910390fd5b6000600388604051611fcd9190613ac2565b9081526020016040518091039020905087816000019081611fee919061447b565b5086816001019081612000919061447b565b50338160020160006101000a81548173ffffffffffffffffffffffffffffffffffffffff021916908373ffffffffffffffffffffffffffffffffffffffff16021790555085816003018190555042816004018190555042816005018190555084816006019081612070919061447b565b50838160070160006101000a81548160ff02191690831515021790555060008160080181905550828160090190805190602001906120af929190612d4d565b508181600c01819055506008889080600181540180825580915050600190039060005260206000200160009091909190915090816120ed919061447b565b503373ffffffffffffffffffffffffffffffffffffffff16886040516121139190613ac2565b60405180910390207f0b676c33880daff1a31fa6365b07f18cfc698e569ddd7b25365d68cfb7e6e7eb8860405161214a91906131f0565b60405180910390a361215c8883612669565b5050505050505050565b600080600080600960000154600960010154600960020154600960030154935093509350935090919293565b6000600780549050905090565b6121a7612225565b600073ffffffffffffffffffffffffffffffffffffffff168173ffffffffffffffffffffffffffffffffffffffff16036122195760006040517f1e4fbdf70000000000000000000000000000000000000000000000000000000081526004016122109190613323565b60405180910390fd5b612222816122ac565b50565b61222d612a41565b73ffffffffffffffffffffffffffffffffffffffff1661224b6113bc565b73ffffffffffffffffffffffffffffffffffffffff16146122aa5761226e612a41565b6040517f118cdaa70000000000000000000000000000000000000000000000000000000081526004016122a19190613323565b60405180910390fd5b565b60008060009054906101000a900473ffffffffffffffffffffffffffffffffffffffff169050816000806101000a81548173ffffffffffffffffffffffffffffffffffffffff021916908373ffffffffffffffffffffffffffffffffffffffff1602179055508173ffffffffffffffffffffffffffffffffffffffff168173ffffffffffffffffffffffffffffffffffffffff167f8be0079c531659141344cd1fd0a4f28419497f9722a3daafe3b4186f6b6457e060405160405180910390a35050565b600080845111801561238557506000801b8314155b8015612392575060008251115b90509392505050565b806009600101546123ac9190613d18565b60096000015410156123f3576040517f08c379a00000000000000000000000000000000000000000000000000000000081526004016123ea906147e5565b60405180910390fd5b80600660008473ffffffffffffffffffffffffffffffffffffffff1673ffffffffffffffffffffffffffffffffffffffff1681526020019081526020016000205461243e9190613d18565b600660008473ffffffffffffffffffffffffffffffffffffffff1673ffffffffffffffffffffffffffffffffffffffff16815260200190815260200160002081905550806009600101546124929190613d18565b6009600101819055508173ffffffffffffffffffffffffffffffffffffffff167fe34918ff1c7084970068b53fd71ad6d8b04e9f15d3886cbf006443e6cdc52ea6826040516124e191906131f0565b60405180910390a25050565b6000600260008473ffffffffffffffffffffffffffffffffffffffff1673ffffffffffffffffffffffffffffffffffffffff1681526020019081526020016000209050818160060154106125585781816006015461254b9190613f25565b8160060181905550612563565b600081600601819055505b600a8160030154106125a257600a81600301541015612583576000612595565b600a81600301546125949190613f25565b5b81600301819055506125ad565b600081600301819055505b816009600001546125be9190613d18565b6009600001819055508273ffffffffffffffffffffffffffffffffffffffff167f4b28c7dc138644f27518388387393ecbd08ef8d180a4a6799c954be166a37ab38360405161260d91906131f0565b60405180910390a2505050565b600260015403612656576040517f3ee5aeb500000000000000000000000000000000000000000000000000000000815260040160405180910390fd5b6002600181905550565b60018081905550565b60006126968260038560405161267f9190613ac2565b908152602001604051809103902060030154612a49565b905060005b8151811015612a3b5760008282815181106126b9576126b8614805565b5b602002602001015190506000600260008373ffffffffffffffffffffffffffffffffffffffff1673ffffffffffffffffffffffffffffffffffffffff1681526020019081526020016000209050600086834260405160200161271d9392919061489d565b604051602081830303815290604052805190602001209050600061016d90506000633b9aca0060038a6040516127539190613ac2565b908152602001604051809103902060030154856004015461277491906148d6565b61277e9190614947565b90506040518061014001604052808a81526020018673ffffffffffffffffffffffffffffffffffffffff1681526020013373ffffffffffffffffffffffffffffffffffffffff16815260200183815260200182815260200142815260200162015180846127eb91906148d6565b426127f69190613d18565b8152602001600115158152602001601e8361281191906148d6565b815260200142815250600460008581526020019081526020016000206000820151816000019081612842919061447b565b5060208201518160010160006101000a81548173ffffffffffffffffffffffffffffffffffffffff021916908373ffffffffffffffffffffffffffffffffffffffff16021790555060408201518160020160006101000a81548173ffffffffffffffffffffffffffffffffffffffff021916908373ffffffffffffffffffffffffffffffffffffffff160217905550606082015181600301556080820151816004015560a0820151816005015560c0820151816006015560e08201518160070160006101000a81548160ff021916908315150217905550610100820151816008015561012082015181600901559050506003896040516129429190613ac2565b90815260200160405180910390206003015484600201546129639190613d18565b846002018190555060038960405161297b9190613ac2565b9081526020016040518091039020600b01859080600181540180825580915050600190039060005260206000200160009091909190916101000a81548173ffffffffffffffffffffffffffffffffffffffff021916908373ffffffffffffffffffffffffffffffffffffffff160217905550827fed2d4ef4f53758f4bdcd130e44e9db741083142198a4f58c6336be5a443471e38a8733604051612a2193929190614978565b60405180910390a25050505050808060010191505061269b565b50505050565b600033905090565b6060600780549050831115612a93576040517f08c379a0000000000000000000000000000000000000000000000000000000008152600401612a8a90614a02565b60405180910390fd5b600060078054905067ffffffffffffffff811115612ab457612ab3612e56565b5b604051908082528060200260200182016040528015612ae25781602001602082028036833780820191505090505b5090506000805b600780549050811015612c1e57600060078281548110612b0c57612b0b614805565b5b9060005260206000200160009054906101000a900473ffffffffffffffffffffffffffffffffffffffff1690506000600260008373ffffffffffffffffffffffffffffffffffffffff1673ffffffffffffffffffffffffffffffffffffffff16815260200190815260200160002090508060050160009054906101000a900460ff168015612bad57508681600201548260010154612baa9190613f25565b10155b15612c0f5781858581518110612bc657612bc5614805565b5b602002602001019073ffffffffffffffffffffffffffffffffffffffff16908173ffffffffffffffffffffffffffffffffffffffff16815250508380612c0b90614a22565b9450505b50508080600101915050612ae9565b5084811015612c62576040517f08c379a0000000000000000000000000000000000000000000000000000000008152600401612c5990614adc565b60405180910390fd5b60008567ffffffffffffffff811115612c7e57612c7d612e56565b5b604051908082528060200260200182016040528015612cac5781602001602082028036833780820191505090505b50905060005b8681108015612cc057508281105b15612d4057838181518110612cd857612cd7614805565b5b6020026020010151828281518110612cf357612cf2614805565b5b602002602001019073ffffffffffffffffffffffffffffffffffffffff16908173ffffffffffffffffffffffffffffffffffffffff16815250508080612d3890614a22565b915050612cb2565b5080935050505092915050565b828054828255906000526020600020908101928215612d95579160200282015b82811115612d94578251829081612d84919061447b565b5091602001919060010190612d6d565b5b509050612da29190612da6565b5090565b5b80821115612dc65760008181612dbd9190612dca565b50600101612da7565b5090565b508054612dd690613b74565b6000825580601f10612de85750612e07565b601f016020900490600052602060002090810190612e069190612e0a565b5b50565b5b80821115612e23576000816000905550600101612e0b565b5090565b6000604051905090565b600080fd5b600080fd5b600080fd5b600080fd5b6000601f19601f8301169050919050565b7f4e487b7100000000000000000000000000000000000000000000000000000000600052604160045260246000fd5b612e8e82612e45565b810181811067ffffffffffffffff82111715612ead57612eac612e56565b5b80604052505050565b6000612ec0612e27565b9050612ecc8282612e85565b919050565b600067ffffffffffffffff821115612eec57612eeb612e56565b5b612ef582612e45565b9050602081019050919050565b82818337600083830152505050565b6000612f24612f1f84612ed1565b612eb6565b905082815260208101848484011115612f4057612f3f612e40565b5b612f4b848285612f02565b509392505050565b600082601f830112612f6857612f67612e3b565b5b8135612f78848260208601612f11565b91505092915050565b600073ffffffffffffffffffffffffffffffffffffffff82169050919050565b6000612fac82612f81565b9050919050565b612fbc81612fa1565b8114612fc757600080fd5b50565b600081359050612fd981612fb3565b92915050565b60008060408385031215612ff657612ff5612e31565b5b600083013567ffffffffffffffff81111561301457613013612e36565b5b61302085828601612f53565b925050602061303185828601612fca565b9150509250929050565b60006020828403121561305157613050612e31565b5b600082013567ffffffffffffffff81111561306f5761306e612e36565b5b61307b84828501612f53565b91505092915050565b600081519050919050565b600082825260208201905092915050565b60005b838110156130be5780820151818401526020810190506130a3565b60008484015250505050565b60006130d582613084565b6130df818561308f565b93506130ef8185602086016130a0565b6130f881612e45565b840191505092915050565b61310c81612fa1565b82525050565b6000819050919050565b61312581613112565b82525050565b60008115159050919050565b6131408161312b565b82525050565b600060e0820190508181036000830152613160818a6130ca565b9050818103602083015261317481896130ca565b90506131836040830188613103565b613190606083018761311c565b61319d608083018661311c565b6131aa60a0830185613137565b6131b760c083018461311c565b98975050505050505050565b6000602082840312156131d9576131d8612e31565b5b60006131e784828501612fca565b91505092915050565b6000602082019050613205600083018461311c565b92915050565b6000819050919050565b600061323061322b61322684612f81565b61320b565b612f81565b9050919050565b600061324282613215565b9050919050565b600061325482613237565b9050919050565b61326481613249565b82525050565b600060208201905061327f600083018461325b565b92915050565b600060808201905061329a600083018761311c565b6132a7602083018661311c565b6132b4604083018561311c565b6132c1606083018461311c565b95945050505050565b6132d381613112565b81146132de57600080fd5b50565b6000813590506132f0816132ca565b92915050565b60006020828403121561330c5761330b612e31565b5b600061331a848285016132e1565b91505092915050565b60006020820190506133386000830184613103565b92915050565b600061014082019050613354600083018d613103565b613361602083018c61311c565b61336e604083018b61311c565b61337b606083018a61311c565b613388608083018961311c565b61339560a0830188613137565b6133a260c083018761311c565b6133af60e083018661311c565b8181036101008301526133c281856130ca565b90508181036101208301526133d781846130ca565b90509b9a5050505050505050505050565b6000610140820190508181036000830152613403818d6130ca565b90508181036020830152613417818c6130ca565b9050613426604083018b613103565b613433606083018a61311c565b613440608083018961311c565b61344d60a083018861311c565b81810360c083015261345f81876130ca565b905061346e60e0830186613137565b61347c61010083018561311c565b61348a61012083018461311c565b9b9a5050505050505050505050565b600060c0820190506134ae600083018961311c565b6134bb602083018861311c565b6134c8604083018761311c565b6134d5606083018661311c565b6134e26080830185613137565b6134ef60a083018461311c565b979650505050505050565b6000819050919050565b61350d816134fa565b811461351857600080fd5b50565b60008135905061352a81613504565b92915050565b600067ffffffffffffffff82111561354b5761354a612e56565b5b602082029050602081019050919050565b600080fd5b600061357461356f84613530565b612eb6565b905080838252602082019050602084028301858111156135975761359661355c565b5b835b818110156135c057806135ac888261351b565b845260208401935050602081019050613599565b5050509392505050565b600082601f8301126135df576135de612e3b565b5b81356135ef848260208601613561565b91505092915050565b60008060006060848603121561361157613610612e31565b5b600061361f8682870161351b565b935050602084013567ffffffffffffffff8111156136405761363f612e36565b5b61364c868287016135ca565b925050604061365d8682870161351b565b9150509250925092565b6000806000606084860312156136805761367f612e31565b5b600061368e86828701612fca565b935050602061369f868287016132e1565b925050604084013567ffffffffffffffff8111156136c0576136bf612e36565b5b6136cc86828701612f53565b9150509250925092565b600060208201905081810360008301526136f081846130ca565b905092915050565b6000806000806080858703121561371257613711612e31565b5b6000613720878288016132e1565b9450506020613731878288016132e1565b935050604085013567ffffffffffffffff81111561375257613751612e36565b5b61375e87828801612f53565b925050606085013567ffffffffffffffff81111561377f5761377e612e36565b5b61378b87828801612f53565b91505092959194509250565b6000602082840312156137ad576137ac612e31565b5b60006137bb8482850161351b565b91505092915050565b60006101408201905081810360008301526137df818d6130ca565b90506137ee602083018c613103565b6137fb604083018b613103565b613808606083018a61311c565b613815608083018961311c565b61382260a083018861311c565b61382f60c083018761311c565b61383c60e0830186613137565b61384a61010083018561311c565b61385861012083018461311c565b9b9a5050505050505050505050565b6138708161312b565b811461387b57600080fd5b50565b60008135905061388d81613867565b92915050565b600067ffffffffffffffff8211156138ae576138ad612e56565b5b602082029050602081019050919050565b60006138d26138cd84613893565b612eb6565b905080838252602082019050602084028301858111156138f5576138f461355c565b5b835b8181101561393c57803567ffffffffffffffff81111561391a57613919612e3b565b5b8086016139278982612f53565b855260208501945050506020810190506138f7565b5050509392505050565b600082601f83011261395b5761395a612e3b565b5b813561396b8482602086016138bf565b91505092915050565b600080600080600080600060e0888a03121561399357613992612e31565b5b600088013567ffffffffffffffff8111156139b1576139b0612e36565b5b6139bd8a828b01612f53565b975050602088013567ffffffffffffffff8111156139de576139dd612e36565b5b6139ea8a828b01612f53565b96505060406139fb8a828b016132e1565b955050606088013567ffffffffffffffff811115613a1c57613a1b612e36565b5b613a288a828b01612f53565b9450506080613a398a828b0161387e565b93505060a088013567ffffffffffffffff811115613a5a57613a59612e36565b5b613a668a828b01613946565b92505060c0613a778a828b016132e1565b91505092959891949750929550565b600081905092915050565b6000613a9c82613084565b613aa68185613a86565b9350613ab68185602086016130a0565b80840191505092915050565b6000613ace8284613a91565b915081905092915050565b7f4f6e6c79206f776e65722063616e206772616e74206163636573730000000000600082015250565b6000613b0f601b8361308f565b9150613b1a82613ad9565b602082019050919050565b60006020820190508181036000830152613b3e81613b02565b9050919050565b7f4e487b7100000000000000000000000000000000000000000000000000000000600052602260045260246000fd5b60006002820490506001821680613b8c57607f821691505b602082108103613b9f57613b9e613b45565b5b50919050565b7f4f6e6c79206f776e65722063616e207265766f6b652061636365737300000000600082015250565b6000613bdb601c8361308f565b9150613be682613ba5565b602082019050919050565b60006020820190508181036000830152613c0a81613bce565b9050919050565b7f46696c6520646f6573206e6f7420657869737400000000000000000000000000600082015250565b6000613c4760138361308f565b9150613c5282613c11565b602082019050919050565b60006020820190508181036000830152613c7681613c3a565b9050919050565b7f4163636573732064656e69656400000000000000000000000000000000000000600082015250565b6000613cb3600d8361308f565b9150613cbe82613c7d565b602082019050919050565b60006020820190508181036000830152613ce281613ca6565b9050919050565b7f4e487b7100000000000000000000000000000000000000000000000000000000600052601160045260246000fd5b6000613d2382613112565b9150613d2e83613112565b9250828201905080821115613d4657613d45613ce9565b5b92915050565b7f436f6e7472616374206973206e6f742061637469766500000000000000000000600082015250565b6000613d8260168361308f565b9150613d8d82613d4c565b602082019050919050565b60006020820190508181036000830152613db181613d75565b9050919050565b7f4f6e6c792070726f76696465722063616e207375626d69742070726f6f660000600082015250565b6000613dee601e8361308f565b9150613df982613db8565b602082019050919050565b60006020820190508181036000830152613e1d81613de1565b9050919050565b7f50726f6f66207375626d697474656420746f6f206561726c7900000000000000600082015250565b6000613e5a60198361308f565b9150613e6582613e24565b602082019050919050565b60006020820190508181036000830152613e8981613e4d565b9050919050565b6000604082019050613ea56000830185613103565b613eb26020830184613137565b9392505050565b7f50726f7669646572206973206e6f742061637469766500000000000000000000600082015250565b6000613eef60168361308f565b9150613efa82613eb9565b602082019050919050565b60006020820190508181036000830152613f1e81613ee2565b9050919050565b6000613f3082613112565b9150613f3b83613112565b9250828203905081811115613f5357613f52613ce9565b5b92915050565b6000604082019050613f6e600083018561311c565b8181036020830152613f8081846130ca565b90509392505050565b7f4e6f206561726e696e677320746f207769746864726177000000000000000000600082015250565b6000613fbf60178361308f565b9150613fca82613f89565b602082019050919050565b60006020820190508181036000830152613fee81613fb2565b9050919050565b600060408201905061400a6000830185613103565b614017602083018461311c565b9392505050565b60008151905061402d81613867565b92915050565b60006020828403121561404957614048612e31565b5b60006140578482850161401e565b91505092915050565b7f5472616e73666572206661696c65640000000000000000000000000000000000600082015250565b6000614096600f8361308f565b91506140a182614060565b602082019050919050565b600060208201905081810360008301526140c581614089565b9050919050565b7f53746f72616765206361706163697479206d757374206265206772656174657260008201527f207468616e203000000000000000000000000000000000000000000000000000602082015250565b600061412860278361308f565b9150614133826140cc565b604082019050919050565b600060208201905081810360008301526141578161411b565b9050919050565b7f5072696365206d7573742062652067726561746572207468616e203000000000600082015250565b6000614194601c8361308f565b915061419f8261415e565b602082019050919050565b600060208201905081810360008301526141c381614187565b9050919050565b7f50726f766964657220616c726561647920726567697374657265640000000000600082015250565b6000614200601b8361308f565b915061420b826141ca565b602082019050919050565b6000602082019050818103600083015261422f816141f3565b9050919050565b600060608201905061424b6000830186613103565b6142586020830185613103565b614265604083018461311c565b949350505050565b7f4661696c656420746f207374616b6520746f6b656e7300000000000000000000600082015250565b60006142a360168361308f565b91506142ae8261426d565b602082019050919050565b600060208201905081810360008301526142d281614296565b9050919050565b60008190508160005260206000209050919050565b60006020601f8301049050919050565b600082821b905092915050565b60006008830261433b7fffffffffffffffffffffffffffffffffffffffffffffffffffffffffffffffff826142fe565b61434586836142fe565b95508019841693508086168417925050509392505050565b600061437861437361436e84613112565b61320b565b613112565b9050919050565b6000819050919050565b6143928361435d565b6143a661439e8261437f565b84845461430b565b825550505050565b600090565b6143bb6143ae565b6143c6818484614389565b505050565b5b818110156143ea576143df6000826143b3565b6001810190506143cc565b5050565b601f82111561442f57614400816142d9565b614409846142ee565b81016020851015614418578190505b61442c614424856142ee565b8301826143cb565b50505b505050565b600082821c905092915050565b600061445260001984600802614434565b1980831691505092915050565b600061446b8383614441565b9150826002028217905092915050565b61448482613084565b67ffffffffffffffff81111561449d5761449c612e56565b5b6144a78254613b74565b6144b28282856143ee565b600060209050601f8311600181146144e557600084156144d3578287015190505b6144dd858261445f565b865550614545565b601f1984166144f3866142d9565b60005b8281101561451b578489015182556001820191506020850194506020810190506144f6565b868310156145385784890151614534601f891682614441565b8355505b6001600288020188555050505b505050505050565b6000604082019050818103600083015261456781856130ca565b9050614576602083018461311c565b9392505050565b7f46696c652049442063616e6e6f7420626520656d707479000000000000000000600082015250565b60006145b360178361308f565b91506145be8261457d565b602082019050919050565b600060208201905081810360008301526145e2816145a6565b9050919050565b7f436f6e74656e7420686173682063616e6e6f7420626520656d70747900000000600082015250565b600061461f601c8361308f565b915061462a826145e9565b602082019050919050565b6000602082019050818103600083015261464e81614612565b9050919050565b7f46696c652073697a65206d7573742062652067726561746572207468616e2030600082015250565b600061468b60208361308f565b915061469682614655565b602082019050919050565b600060208201905081810360008301526146ba8161467e565b9050919050565b7f496e76616c6964207265706c69636174696f6e20666163746f72000000000000600082015250565b60006146f7601a8361308f565b9150614702826146c1565b602082019050919050565b60006020820190508181036000830152614726816146ea565b9050919050565b7f46696c6520616c72656164792065786973747300000000000000000000000000600082015250565b600061476360138361308f565b915061476e8261472d565b602082019050919050565b6000602082019050818103600083015261479281614756565b9050919050565b7f496e73756666696369656e742072657761726420706f6f6c0000000000000000600082015250565b60006147cf60188361308f565b91506147da82614799565b602082019050919050565b600060208201905081810360008301526147fe816147c2565b9050919050565b7f4e487b7100000000000000000000000000000000000000000000000000000000600052603260045260246000fd5b60008160601b9050919050565b600061484c82614834565b9050919050565b600061485e82614841565b9050919050565b61487661487182612fa1565b614853565b82525050565b6000819050919050565b61489761489282613112565b61487c565b82525050565b60006148a98286613a91565b91506148b58285614865565b6014820191506148c58284614886565b602082019150819050949350505050565b60006148e182613112565b91506148ec83613112565b92508282026148fa81613112565b9150828204841483151761491157614910613ce9565b5b5092915050565b7f4e487b7100000000000000000000000000000000000000000000000000000000600052601260045260246000fd5b600061495282613112565b915061495d83613112565b92508261496d5761496c614918565b5b828204905092915050565b6000606082019050818103600083015261499281866130ca565b90506149a16020830185613103565b6149ae6040830184613103565b949350505050565b7f4e6f7420656e6f756768206163746976652070726f7669646572730000000000600082015250565b60006149ec601b8361308f565b91506149f7826149b6565b602082019050919050565b60006020820190508181036000830152614a1b816149df565b9050919050565b6000614a2d82613112565b91507fffffffffffffffffffffffffffffffffffffffffffffffffffffffffffffffff8203614a5f57614a5e613ce9565b5b600182019050919050565b7f4e6f7420656e6f75676820617661696c61626c652073746f726167652063617060008201527f6163697479000000000000000000000000000000000000000000000000000000602082015250565b6000614ac660258361308f565b9150614ad182614a6a565b604082019050919050565b60006020820190508181036000830152614af581614ab9565b905091905056fea2646970667358221220fd7df531d20ef52472daafcfd589c5b38d6394a63ca76cec2e65c0589be7652c64736f6c63430008180033",
  "linkReferences": {},
  "deployedLinkReferences": {}
}