{
  "_format": "hh-sol-artifact-1",
  "contractName": "FileManager",
  "sourceName": "contracts/FileManager.sol",
  "abi": [
    {
      "inputs": [
        {
          "internalType": "string",
          "name": "_fileName",
          "type": "string"
        },
        {
          "internalType": "string",
          "name": "_fileCid",
          "type": "string"
        }
      ],
      "name": "addFile",
      "outputs": [],
      "stateMutability": "nonpayable",
      "type": "function"
    },
    {
      "inputs": [],
      "name": "getMyFiles",
      "outputs": [
        {
          "internalType": "string[]",
          "name": "",
          "type": "string[]"
        }
      ],
      "stateMutability": "view",
      "type": "function"
    }
  ],
  "bytecode": "0x60806040526001805534801561001457600080fd5b506109bd806100246000396000f3fe608060405234801561001057600080fd5b50600436106100365760003560e01c8063248bfc3b1461003b57806390a4b0df14610057575b600080fd5b61005560048036038101906100509190610691565b610075565b005b61005f6101be565b60405161006c9190610853565b60405180910390f35b6000803373ffffffffffffffffffffffffffffffffffffffff1673ffffffffffffffffffffffffffffffffffffffff168152602001908152602001600020604051806080016040528060015481526020018481526020018381526020013373ffffffffffffffffffffffffffffffffffffffff16815250908060018154018082558091505060019003906000526020600020906004020160009091909190915060008201518160000155602082015181600101908051906020019061013b929190610494565b506040820151816002019080519060200190610158929190610494565b5060608201518160030160006101000a81548173ffffffffffffffffffffffffffffffffffffffff021916908373ffffffffffffffffffffffffffffffffffffffff1602179055505050600160008154809291906101b5906108ae565b91905055505050565b606060008060003373ffffffffffffffffffffffffffffffffffffffff1673ffffffffffffffffffffffffffffffffffffffff168152602001908152602001600020805480602002602001604051908101604052809291908181526020016000905b828210156103d657838290600052602060002090600402016040518060800160405290816000820154815260200160018201805461025d90610926565b80601f016020809104026020016040519081016040528092919081815260200182805461028990610926565b80156102d65780601f106102ab576101008083540402835291602001916102d6565b820191906000526020600020905b8154815290600101906020018083116102b957829003601f168201915b505050505081526020016002820180546102ef90610926565b80601f016020809104026020016040519081016040528092919081815260200182805461031b90610926565b80156103685780601f1061033d57610100808354040283529160200191610368565b820191906000526020600020905b81548152906001019060200180831161034b57829003601f168201915b505050505081526020016003820160009054906101000a900473ffffffffffffffffffffffffffffffffffffffff1673ffffffffffffffffffffffffffffffffffffffff1673ffffffffffffffffffffffffffffffffffffffff168152505081526020019060010190610220565b5050505090506000815167ffffffffffffffff8111156103f9576103f8610566565b5b60405190808252806020026020018201604052801561042c57816020015b60608152602001906001900390816104175790505b50905060005b825181101561048b5782818151811061044e5761044d610958565b5b60200260200101516040015182828151811061046d5761046c610958565b5b60200260200101819052508080610483906108ae565b915050610432565b50809250505090565b8280546104a090610926565b90600052602060002090601f0160209004810192826104c25760008555610509565b82601f106104db57805160ff1916838001178555610509565b82800160010185558215610509579182015b828111156105085782518255916020019190600101906104ed565b5b509050610516919061051a565b5090565b5b8082111561053357600081600090555060010161051b565b5090565b6000604051905090565b600080fd5b600080fd5b600080fd5b600080fd5b6000601f19601f8301169050919050565b7f4e487b7100000000000000000000000000000000000000000000000000000000600052604160045260246000fd5b61059e82610555565b810181811067ffffffffffffffff821117156105bd576105bc610566565b5b80604052505050565b60006105d0610537565b90506105dc8282610595565b919050565b600067ffffffffffffffff8211156105fc576105fb610566565b5b61060582610555565b9050602081019050919050565b82818337600083830152505050565b600061063461062f846105e1565b6105c6565b9050828152602081018484840111156106505761064f610550565b5b61065b848285610612565b509392505050565b600082601f8301126106785761067761054b565b5b8135610688848260208601610621565b91505092915050565b600080604083850312156106a8576106a7610541565b5b600083013567ffffffffffffffff8111156106c6576106c5610546565b5b6106d285828601610663565b925050602083013567ffffffffffffffff8111156106f3576106f2610546565b5b6106ff85828601610663565b9150509250929050565b600081519050919050565b600082825260208201905092915050565b6000819050602082019050919050565b600081519050919050565b600082825260208201905092915050565b60005b8381101561076f578082015181840152602081019050610754565b8381111561077e576000848401525b50505050565b600061078f82610735565b6107998185610740565b93506107a9818560208601610751565b6107b281610555565b840191505092915050565b60006107c98383610784565b905092915050565b6000602082019050919050565b60006107e982610709565b6107f38185610714565b93508360208202850161080585610725565b8060005b85811015610841578484038952815161082285826107bd565b945061082d836107d1565b925060208a01995050600181019050610809565b50829750879550505050505092915050565b6000602082019050818103600083015261086d81846107de565b905092915050565b7f4e487b7100000000000000000000000000000000000000000000000000000000600052601160045260246000fd5b6000819050919050565b60006108b9826108a4565b91507fffffffffffffffffffffffffffffffffffffffffffffffffffffffffffffffff8214156108ec576108eb610875565b5b600182019050919050565b7f4e487b7100000000000000000000000000000000000000000000000000000000600052602260045260246000fd5b6000600282049050600182168061093e57607f821691505b60208210811415610952576109516108f7565b5b50919050565b7f4e487b7100000000000000000000000000000000000000000000000000000000600052603260045260246000fdfea2646970667358221220f55b8427b986be01ebd08528bfe894e2f2382abbbf670ee0708b50fd92ffd94664736f6c63430008090033",
  "linkReferences": {},
  "deployedLinkReferences": {}
}