{
  "_format": "hh-sol-artifact-1",
  "contractName": "FileManager",
  "sourceName": "contracts/FileManager.sol",
  "abi": [
    {
      "inputs": [],
      "stateMutability": "nonpayable",
      "type": "constructor"
    },
    {
      "anonymous": false,
      "inputs": [
        {
          "indexed": true,
          "internalType": "bytes32",
          "name": "fileId",
          "type": "bytes32"
        },
        {
          "indexed": true,
          "internalType": "address",
          "name": "user",
          "type": "address"
        },
        {
          "indexed": true,
          "internalType": "address",
          "name": "grantedTo",
          "type": "address"
        }
      ],
      "name": "AccessGranted",
      "type": "event"
    },
    {
      "anonymous": false,
      "inputs": [
        {
          "indexed": true,
          "internalType": "bytes32",
          "name": "fileId",
          "type": "bytes32"
        },
        {
          "indexed": true,
          "internalType": "address",
          "name": "user",
          "type": "address"
        },
        {
          "indexed": true,
          "internalType": "address",
          "name": "revokedFrom",
          "type": "address"
        }
      ],
      "name": "AccessRevoked",
      "type": "event"
    },
    {
      "anonymous": false,
      "inputs": [
        {
          "indexed": true,
          "internalType": "address",
          "name": "user",
          "type": "address"
        },
        {
          "indexed": false,
          "internalType": "uint256",
          "name": "fileId",
          "type": "uint256"
        },
        {
          "indexed": false,
          "internalType": "string",
          "name": "fileName",
          "type": "string"
        },
        {
          "indexed": false,
          "internalType": "string",
          "name": "cid",
          "type": "string"
        },
        {
          "indexed": false,
          "internalType": "uint256",
          "name": "timestamp",
          "type": "uint256"
        }
      ],
      "name": "FileUploaded",
      "type": "event"
    },
    {
      "inputs": [
        {
          "internalType": "bytes32",
          "name": "",
          "type": "bytes32"
        },
        {
          "internalType": "address",
          "name": "",
          "type": "address"
        }
      ],
      "name": "accessList",
      "outputs": [
        {
          "internalType": "bool",
          "name": "",
          "type": "bool"
        }
      ],
      "stateMutability": "view",
      "type": "function"
    },
    {
      "inputs": [
        {
          "internalType": "string",
          "name": "_fileName",
          "type": "string"
        },
        {
          "internalType": "string",
          "name": "_fileType",
          "type": "string"
        },
        {
          "internalType": "string",
          "name": "_cid",
          "type": "string"
        }
      ],
      "name": "addFile",
      "outputs": [],
      "stateMutability": "nonpayable",
      "type": "function"
    },
    {
      "inputs": [
        {
          "internalType": "address",
          "name": "_userAddress",
          "type": "address"
        },
        {
          "internalType": "uint256",
          "name": "_fileId",
          "type": "uint256"
        }
      ],
      "name": "getFile",
      "outputs": [
        {
          "internalType": "string",
          "name": "",
          "type": "string"
        },
        {
          "internalType": "string",
          "name": "",
          "type": "string"
        },
        {
          "internalType": "string",
          "name": "",
          "type": "string"
        },
        {
          "internalType": "uint256",
          "name": "",
          "type": "uint256"
        }
      ],
      "stateMutability": "view",
      "type": "function"
    },
    {
      "inputs": [
        {
          "internalType": "address",
          "name": "_userAddress",
          "type": "address"
        },
        {
          "internalType": "uint256",
          "name": "_fileId",
          "type": "uint256"
        },
        {
          "internalType": "uint256",
          "name": "_versionId",
          "type": "uint256"
        }
      ],
      "name": "getFileVersion",
      "outputs": [
        {
          "internalType": "string",
          "name": "",
          "type": "string"
        },
        {
          "internalType": "uint256",
          "name": "",
          "type": "uint256"
        }
      ],
      "stateMutability": "view",
      "type": "function"
    },
    {
      "inputs": [
        {
          "internalType": "address",
          "name": "_userAddress",
          "type": "address"
        },
        {
          "internalType": "uint256",
          "name": "_fileId",
          "type": "uint256"
        }
      ],
      "name": "getFileVersionCount",
      "outputs": [
        {
          "internalType": "uint256",
          "name": "",
          "type": "uint256"
        }
      ],
      "stateMutability": "view",
      "type": "function"
    },
    {
      "inputs": [],
      "name": "getMyFiles",
      "outputs": [
        {
          "internalType": "string[]",
          "name": "",
          "type": "string[]"
        }
      ],
      "stateMutability": "view",
      "type": "function"
    },
    {
      "inputs": [
        {
          "internalType": "address",
          "name": "_userAddress",
          "type": "address"
        }
      ],
      "name": "getUserFileCount",
      "outputs": [
        {
          "internalType": "uint256",
          "name": "",
          "type": "uint256"
        }
      ],
      "stateMutability": "view",
      "type": "function"
    },
    {
      "inputs": [
        {
          "internalType": "uint256",
          "name": "_fileId",
          "type": "uint256"
        },
        {
          "internalType": "address",
          "name": "_userToGrant",
          "type": "address"
        }
      ],
      "name": "grantAccess",
      "outputs": [],
      "stateMutability": "nonpayable",
      "type": "function"
    },
    {
      "inputs": [],
      "name": "owner",
      "outputs": [
        {
          "internalType": "address",
          "name": "",
          "type": "address"
        }
      ],
      "stateMutability": "view",
      "type": "function"
    },
    {
      "inputs": [
        {
          "internalType": "uint256",
          "name": "_fileId",
          "type": "uint256"
        },
        {
          "internalType": "address",
          "name": "_userToRevoke",
          "type": "address"
        }
      ],
      "name": "revokeAccess",
      "outputs": [],
      "stateMutability": "nonpayable",
      "type": "function"
    }
  ],
  "bytecode": "0x608060405234801561001057600080fd5b50336000806101000a81548173ffffffffffffffffffffffffffffffffffffffff021916908373ffffffffffffffffffffffffffffffffffffffff160217905550611ff0806100606000396000f3fe608060405234801561001057600080fd5b506004361061009e5760003560e01c8063a6d3028a11610066578063a6d3028a1461015c578063bfeb16331461018c578063d45a5685146101bf578063d9a5ec1b146101db578063e4e10b36146101f75761009e565b806365dd152c146100a35780638251a469146100bf5780638da5cb5b146100f057806390a4b0df1461010e5780639c7a5fd31461012c575b600080fd5b6100bd60048036038101906100b891906112c5565b610227565b005b6100d960048036038101906100d49190611305565b61036c565b6040516100e79291906113f7565b60405180910390f35b6100f86105b5565b6040516101059190611436565b60405180910390f35b6101166105d9565b604051610123919061155d565b60405180910390f35b6101466004803603810190610141919061157f565b6107ca565b60405161015391906115bf565b60405180910390f35b61017660048036038101906101719190611610565b610909565b604051610183919061166b565b60405180910390f35b6101a660048036038101906101a1919061157f565b610938565b6040516101b69493929190611686565b60405180910390f35b6101d960048036038101906101d49190611815565b610c79565b005b6101f560048036038101906101f091906112c5565b610f92565b005b610211600480360381019061020c91906118bc565b611069565b60405161021e91906115bf565b60405180910390f35b3373ffffffffffffffffffffffffffffffffffffffff168173ffffffffffffffffffffffffffffffffffffffff1603610295576040517f08c379a000000000000000000000000000000000000000000000000000000000815260040161028c90611935565b60405180910390fd5b60006102a133846110b2565b905060016003600083815260200190815260200160002060008473ffffffffffffffffffffffffffffffffffffffff1673ffffffffffffffffffffffffffffffffffffffff16815260200190815260200160002060006101000a81548160ff0219169083151502179055508173ffffffffffffffffffffffffffffffffffffffff163373ffffffffffffffffffffffffffffffffffffffff16827f7aeffe35f64b55a7c424c5fccc3fba0f3ac4ebd764cc737855b8734834458f2b60405160405180910390a4505050565b606060008061037b86866110b2565b90508573ffffffffffffffffffffffffffffffffffffffff163373ffffffffffffffffffffffffffffffffffffffff16148061041157506003600082815260200190815260200160002060003373ffffffffffffffffffffffffffffffffffffffff1673ffffffffffffffffffffffffffffffffffffffff16815260200190815260200160002060009054906101000a900460ff165b610450576040517f08c379a0000000000000000000000000000000000000000000000000000000008152600401610447906119a1565b60405180910390fd5b6000600160008873ffffffffffffffffffffffffffffffffffffffff1673ffffffffffffffffffffffffffffffffffffffff16815260200190815260200160002060008781526020019081526020016000209050806002015485106104ea576040517f08c379a00000000000000000000000000000000000000000000000000000000081526004016104e190611a0d565b60405180910390fd5b8060030160008681526020019081526020016000206000018160030160008781526020019081526020016000206001015481805461052790611a5c565b80601f016020809104026020016040519081016040528092919081815260200182805461055390611a5c565b80156105a05780601f10610575576101008083540402835291602001916105a0565b820191906000526020600020905b81548152906001019060200180831161058357829003601f168201915b50505050509150935093505050935093915050565b60008054906101000a900473ffffffffffffffffffffffffffffffffffffffff1681565b60606000600260003373ffffffffffffffffffffffffffffffffffffffff1673ffffffffffffffffffffffffffffffffffffffff16815260200190815260200160002054905060008167ffffffffffffffff81111561063b5761063a6116ea565b5b60405190808252806020026020018201604052801561066e57816020015b60608152602001906001900390816106595790505b50905060005b828110156107c1576000600160003373ffffffffffffffffffffffffffffffffffffffff1673ffffffffffffffffffffffffffffffffffffffff168152602001908152602001600020600083815260200190815260200160002090506000816002015411156107b3576000600182600201546106f09190611abc565b9050816003016000828152602001908152602001600020600001805461071590611a5c565b80601f016020809104026020016040519081016040528092919081815260200182805461074190611a5c565b801561078e5780601f106107635761010080835404028352916020019161078e565b820191906000526020600020905b81548152906001019060200180831161077157829003601f168201915b50505050508484815181106107a6576107a5611af0565b5b6020026020010181905250505b508080600101915050610674565b50809250505090565b6000806107d784846110b2565b90508373ffffffffffffffffffffffffffffffffffffffff163373ffffffffffffffffffffffffffffffffffffffff16148061086d57506003600082815260200190815260200160002060003373ffffffffffffffffffffffffffffffffffffffff1673ffffffffffffffffffffffffffffffffffffffff16815260200190815260200160002060009054906101000a900460ff165b6108ac576040517f08c379a00000000000000000000000000000000000000000000000000000000081526004016108a3906119a1565b60405180910390fd5b600160008573ffffffffffffffffffffffffffffffffffffffff1673ffffffffffffffffffffffffffffffffffffffff16815260200190815260200160002060008481526020019081526020016000206002015491505092915050565b60036020528160005260406000206020528060005260406000206000915091509054906101000a900460ff1681565b606080606060008061094a87876110b2565b90508673ffffffffffffffffffffffffffffffffffffffff163373ffffffffffffffffffffffffffffffffffffffff1614806109e057506003600082815260200190815260200160002060003373ffffffffffffffffffffffffffffffffffffffff1673ffffffffffffffffffffffffffffffffffffffff16815260200190815260200160002060009054906101000a900460ff165b610a1f576040517f08c379a0000000000000000000000000000000000000000000000000000000008152600401610a16906119a1565b60405180910390fd5b6000600160008973ffffffffffffffffffffffffffffffffffffffff1673ffffffffffffffffffffffffffffffffffffffff16815260200190815260200160002060008881526020019081526020016000209050600060018260020154610a869190611abc565b9050816000018260010183600301600084815260200190815260200160002060000184600301600085815260200190815260200160002060010154838054610acd90611a5c565b80601f0160208091040260200160405190810160405280929190818152602001828054610af990611a5c565b8015610b465780601f10610b1b57610100808354040283529160200191610b46565b820191906000526020600020905b815481529060010190602001808311610b2957829003601f168201915b50505050509350828054610b5990611a5c565b80601f0160208091040260200160405190810160405280929190818152602001828054610b8590611a5c565b8015610bd25780601f10610ba757610100808354040283529160200191610bd2565b820191906000526020600020905b815481529060010190602001808311610bb557829003601f168201915b50505050509250818054610be590611a5c565b80601f0160208091040260200160405190810160405280929190818152602001828054610c1190611a5c565b8015610c5e5780601f10610c3357610100808354040283529160200191610c5e565b820191906000526020600020905b815481529060010190602001808311610c4157829003601f168201915b50505050509150965096509650965050505092959194509250565b6000610c8533856110e5565b90507fffffffffffffffffffffffffffffffffffffffffffffffffffffffffffffffff8114610dcd576000600160003373ffffffffffffffffffffffffffffffffffffffff1673ffffffffffffffffffffffffffffffffffffffff168152602001908152602001600020600083815260200190815260200160002090506000816002015490506040518060400160405280858152602001428152508260030160008381526020019081526020016000206000820151816000019081610d4a9190611ccb565b5060208201518160010155905050816002016000815480929190610d6d90611d9d565b91905055503373ffffffffffffffffffffffffffffffffffffffff167f36a6402112cac56efb433cbff6aa17af73144eec2f8c289c4ad47e13c2a416db84888742604051610dbe9493929190611de5565b60405180910390a25050610f8c565b6000600260003373ffffffffffffffffffffffffffffffffffffffff1673ffffffffffffffffffffffffffffffffffffffff1681526020019081526020016000205490506000600160003373ffffffffffffffffffffffffffffffffffffffff1673ffffffffffffffffffffffffffffffffffffffff1681526020019081526020016000206000838152602001908152602001600020905085816000019081610e769190611ccb565b5084816001019081610e889190611ccb565b506040518060400160405280858152602001428152508160030160008081526020019081526020016000206000820151816000019081610ec89190611ccb565b506020820151816001015590505060018160020181905550600260003373ffffffffffffffffffffffffffffffffffffffff1673ffffffffffffffffffffffffffffffffffffffff1681526020019081526020016000206000815480929190610f3090611d9d565b91905055503373ffffffffffffffffffffffffffffffffffffffff167f36a6402112cac56efb433cbff6aa17af73144eec2f8c289c4ad47e13c2a416db83888742604051610f819493929190611de5565b60405180910390a250505b50505050565b6000610f9e33846110b2565b905060006003600083815260200190815260200160002060008473ffffffffffffffffffffffffffffffffffffffff1673ffffffffffffffffffffffffffffffffffffffff16815260200190815260200160002060006101000a81548160ff0219169083151502179055508173ffffffffffffffffffffffffffffffffffffffff163373ffffffffffffffffffffffffffffffffffffffff16827ffab19bdeacf1ea13315b1da3f79a3403fe4f16793b6a03eeff9e0bbbea24fe5f60405160405180910390a4505050565b6000600260008373ffffffffffffffffffffffffffffffffffffffff1673ffffffffffffffffffffffffffffffffffffffff168152602001908152602001600020549050919050565b600082826040516020016110c7929190611ea1565b60405160208183030381529060405280519060200120905092915050565b600080600260008573ffffffffffffffffffffffffffffffffffffffff1673ffffffffffffffffffffffffffffffffffffffff16815260200190815260200160002054905060005b818110156111f157836040516020016111469190611f09565b60405160208183030381529060405280519060200120600160008773ffffffffffffffffffffffffffffffffffffffff1673ffffffffffffffffffffffffffffffffffffffff16815260200190815260200160002060008381526020019081526020016000206000016040516020016111bf9190611fa3565b60405160208183030381529060405280519060200120036111e4578092505050611217565b808060010191505061112d565b507fffffffffffffffffffffffffffffffffffffffffffffffffffffffffffffffff9150505b92915050565b6000604051905090565b600080fd5b600080fd5b6000819050919050565b61124481611231565b811461124f57600080fd5b50565b6000813590506112618161123b565b92915050565b600073ffffffffffffffffffffffffffffffffffffffff82169050919050565b600061129282611267565b9050919050565b6112a281611287565b81146112ad57600080fd5b50565b6000813590506112bf81611299565b92915050565b600080604083850312156112dc576112db611227565b5b60006112ea85828601611252565b92505060206112fb858286016112b0565b9150509250929050565b60008060006060848603121561131e5761131d611227565b5b600061132c868287016112b0565b935050602061133d86828701611252565b925050604061134e86828701611252565b9150509250925092565b600081519050919050565b600082825260208201905092915050565b60005b83811015611392578082015181840152602081019050611377565b60008484015250505050565b6000601f19601f8301169050919050565b60006113ba82611358565b6113c48185611363565b93506113d4818560208601611374565b6113dd8161139e565b840191505092915050565b6113f181611231565b82525050565b6000604082019050818103600083015261141181856113af565b905061142060208301846113e8565b9392505050565b61143081611287565b82525050565b600060208201905061144b6000830184611427565b92915050565b600081519050919050565b600082825260208201905092915050565b6000819050602082019050919050565b600082825260208201905092915050565b600061149982611358565b6114a3818561147d565b93506114b3818560208601611374565b6114bc8161139e565b840191505092915050565b60006114d3838361148e565b905092915050565b6000602082019050919050565b60006114f382611451565b6114fd818561145c565b93508360208202850161150f8561146d565b8060005b8581101561154b578484038952815161152c85826114c7565b9450611537836114db565b925060208a01995050600181019050611513565b50829750879550505050505092915050565b6000602082019050818103600083015261157781846114e8565b905092915050565b6000806040838503121561159657611595611227565b5b60006115a4858286016112b0565b92505060206115b585828601611252565b9150509250929050565b60006020820190506115d460008301846113e8565b92915050565b6000819050919050565b6115ed816115da565b81146115f857600080fd5b50565b60008135905061160a816115e4565b92915050565b6000806040838503121561162757611626611227565b5b6000611635858286016115fb565b9250506020611646858286016112b0565b9150509250929050565b60008115159050919050565b61166581611650565b82525050565b6000602082019050611680600083018461165c565b92915050565b600060808201905081810360008301526116a081876113af565b905081810360208301526116b481866113af565b905081810360408301526116c881856113af565b90506116d760608301846113e8565b95945050505050565b600080fd5b600080fd5b7f4e487b7100000000000000000000000000000000000000000000000000000000600052604160045260246000fd5b6117228261139e565b810181811067ffffffffffffffff82111715611741576117406116ea565b5b80604052505050565b600061175461121d565b90506117608282611719565b919050565b600067ffffffffffffffff8211156117805761177f6116ea565b5b6117898261139e565b9050602081019050919050565b82818337600083830152505050565b60006117b86117b384611765565b61174a565b9050828152602081018484840111156117d4576117d36116e5565b5b6117df848285611796565b509392505050565b600082601f8301126117fc576117fb6116e0565b5b813561180c8482602086016117a5565b91505092915050565b60008060006060848603121561182e5761182d611227565b5b600084013567ffffffffffffffff81111561184c5761184b61122c565b5b611858868287016117e7565b935050602084013567ffffffffffffffff8111156118795761187861122c565b5b611885868287016117e7565b925050604084013567ffffffffffffffff8111156118a6576118a561122c565b5b6118b2868287016117e7565b9150509250925092565b6000602082840312156118d2576118d1611227565b5b60006118e0848285016112b0565b91505092915050565b7f43616e6e6f74207368617265207769746820796f757273656c66000000000000600082015250565b600061191f601a83611363565b915061192a826118e9565b602082019050919050565b6000602082019050818103600083015261194e81611912565b9050919050565b7f4163636573732064656e69656400000000000000000000000000000000000000600082015250565b600061198b600d83611363565b915061199682611955565b602082019050919050565b600060208201905081810360008301526119ba8161197e565b9050919050565b7f56657273696f6e20646f6573206e6f7420657869737400000000000000000000600082015250565b60006119f7601683611363565b9150611a02826119c1565b602082019050919050565b60006020820190508181036000830152611a26816119ea565b9050919050565b7f4e487b7100000000000000000000000000000000000000000000000000000000600052602260045260246000fd5b60006002820490506001821680611a7457607f821691505b602082108103611a8757611a86611a2d565b5b50919050565b7f4e487b7100000000000000000000000000000000000000000000000000000000600052601160045260246000fd5b6000611ac782611231565b9150611ad283611231565b9250828203905081811115611aea57611ae9611a8d565b5b92915050565b7f4e487b7100000000000000000000000000000000000000000000000000000000600052603260045260246000fd5b60008190508160005260206000209050919050565b60006020601f8301049050919050565b600082821b905092915050565b600060088302611b817fffffffffffffffffffffffffffffffffffffffffffffffffffffffffffffffff82611b44565b611b8b8683611b44565b95508019841693508086168417925050509392505050565b6000819050919050565b6000611bc8611bc3611bbe84611231565b611ba3565b611231565b9050919050565b6000819050919050565b611be283611bad565b611bf6611bee82611bcf565b848454611b51565b825550505050565b600090565b611c0b611bfe565b611c16818484611bd9565b505050565b5b81811015611c3a57611c2f600082611c03565b600181019050611c1c565b5050565b601f821115611c7f57611c5081611b1f565b611c5984611b34565b81016020851015611c68578190505b611c7c611c7485611b34565b830182611c1b565b50505b505050565b600082821c905092915050565b6000611ca260001984600802611c84565b1980831691505092915050565b6000611cbb8383611c91565b9150826002028217905092915050565b611cd482611358565b67ffffffffffffffff811115611ced57611cec6116ea565b5b611cf78254611a5c565b611d02828285611c3e565b600060209050601f831160018114611d355760008415611d23578287015190505b611d2d8582611caf565b865550611d95565b601f198416611d4386611b1f565b60005b82811015611d6b57848901518255600182019150602085019450602081019050611d46565b86831015611d885784890151611d84601f891682611c91565b8355505b6001600288020188555050505b505050505050565b6000611da882611231565b91507fffffffffffffffffffffffffffffffffffffffffffffffffffffffffffffffff8203611dda57611dd9611a8d565b5b600182019050919050565b6000608082019050611dfa60008301876113e8565b8181036020830152611e0c81866113af565b90508181036040830152611e2081856113af565b9050611e2f60608301846113e8565b95945050505050565b60008160601b9050919050565b6000611e5082611e38565b9050919050565b6000611e6282611e45565b9050919050565b611e7a611e7582611287565b611e57565b82525050565b6000819050919050565b611e9b611e9682611231565b611e80565b82525050565b6000611ead8285611e69565b601482019150611ebd8284611e8a565b6020820191508190509392505050565b600081905092915050565b6000611ee382611358565b611eed8185611ecd565b9350611efd818560208601611374565b80840191505092915050565b6000611f158284611ed8565b915081905092915050565b60008154611f2d81611a5c565b611f378186611ecd565b94506001821660008114611f525760018114611f6757611f9a565b60ff1983168652811515820286019350611f9a565b611f7085611b1f565b60005b83811015611f9257815481890152600182019150602081019050611f73565b838801955050505b50505092915050565b6000611faf8284611f20565b91508190509291505056fea26469706673582212209a464067286e30ca8bc818ecadf7ec9eb4d5cfe901565fbacb329f5833be4cbc64736f6c63430008180033",
  "linkReferences": {},
  "deployedLinkReferences": {}
}